:0C0000000C9446000C9400000C940000CE
:10000C000C9400000C9400000C9400000C94000064
:10001C000C9400000C9400000C9400000C94000054
:10002C000C9400000C9400000C9400000C94000044
:10003C000C9400000C9400000C9400000C94000034
:10004C000C9400000C9400000C9400000C94000024
:10005C000C9400000C9400000C9400000C94000014
:10006C000C9400000C9400000C9400000C94000004
:10007C000C9400000C9400000C9400000C940000F4
:10008C00F894EE27ECBBF1E0F5BFE5BFE0936C0014
:10009C008DE0A2E0BB27ED938A95E9F780E090E133
:1000AC00A0E0B1E0ED930197E9F7EFEFEDBFE0E1F0
:1000BC00EEBFC0E0D5E00C946300EFE0EABBE0E0FB
:1000CC00EBBBEFE0E7BBE0E0E8BBEFE0E4BBE0E07C
:1000DC00E5BBEFE0E1BBE0E0E2BBEFE0E2B9E0E082
:1000EC00E3B9EFE0E0936100E0E0E0936200E093BD
:1000FC006400E0936500E0BFE3BFE2BFE1BFEFBD8A
:10010C00EEBDEDBDECBDE7BDE6BDEBBDEABDE9BDA9
:10011C00E8BDE0937900E0937800E5BDE4BDE3BD74
:10012C00E0938B00E0938A00E0938900E0938800D1
:10013C00E0938100E0938000E0938700E0938600D9
:10014C00E0938500E0938400E0938300E0938200C9
:10015C00E7BFE0937D00E0936A00EABFE9BFEAB92C
:10016C00E0939A00E0E8E8B9E0E0E0BDE6B9EDB96B
:10017C00E093740044245524E8E1F0E04E165F0649
:10018C008CF5D20131D0EBBBD20133D0E8BB662465
:10019C007724ECE3F0E06E167F0604F5D30124D04F
:1001AC00E0936200D30125D0E5BB88249924ECE3CD
:1001BC00F0E08E169F0674F4D40116D0E3B9D40186
:1001CC0018D0E2BBA4E6B0E00E940401F401319621
:1001DC004F01EDCFF30131963F01DBCFF2013196A8
:1001EC002F01CACFC7CFFFCFEAE0F0E00E942A016F
:1001FC000895EAE0F0E00E9425010895109639F088
:10020C0080ED97E00197F1F7A8951197C9F708953C
:10021C00F195E195F04008950024112490E1AA0F86
:10022C00BB1F001C111C0E1A1F0A18F40E0E1F1EE9
:10023C0001C0A1609A9599F7FD01D001089512D0E3
:10024C00EBDF0EF4E5DF0895E894B7FF04C0A0954A
:10025C00B09511966894F7FDDBDFDEDFFD010EF43F
:10026C00D7DF0895E894F7FF02C0D2DF6894B7FF98
:10027C0006C0A095B095119600F8039400FA089565
:00000001FF
