:100000000C942A000C9400000C9400000C94000046
:100010000C9400000C9400000C9400000C94000060
:100020000C9400000C9400000C9400000C94000050
:100030000C9400000C9400000C9400000C94000040
:100040000C9400000C9400000C9400000C94000030
:100050000C940000F894EE27ECBBF1E0FBBFEBBF83
:10006000E5BF8DE0A2E0BB27ED938A95E9F780E03C
:1000700098E0A0E6ED930197E9F7EFE5EDBFE8E042
:10008000EEBFC0E6D2E00C944500EFE0EABBE0E052
:10009000EBBBEFE0E7BBE0E0E8BBE4BBE5BBE7E0E0
:1000A000E1BBE0E0E2BBE3BFE2BFECBFEFBDEEBD12
:1000B000EDBDECBDE7BDE6BDEBBDEABDE9BDE8BD0C
:1000C000E2BDE5BDE4BDE3BDE9BFE5BFE4BFEAB91C
:1000D000E0E8E8B9E0E0E0BFE6B9EDB9E6BF909A44
:1000E00091989298ECE3F0E02F0100244014500422
:1000F0002CF024D0F20131972F01F7CF9098919AEC
:100100009298E3E0F0E02F010024401450042CF01A
:1001100015D0F20131972F01F7CF90989198929ACC
:10012000ECE3F0E02F010024401450042CF006D042
:10013000F20131972F01F7CFD2CFFFCFD201EAE002
:10014000F0E00E94D400EBBBD201EAE0F0E00E94B4
:10015000CF00E8BBA8EEB3E00C94AE00109639F0E7
:1001600080ED97E00197F1F7A8951197C9F70895E9
:10017000F195E195F04008950024112490E1AA0F33
:10018000BB1F001C111C0E1A1F0A18F40E0E1F1E96
:1001900001C0A1609A9599F7FD01D001089512D090
:1001A000EBDF0EF4E5DF0895E894B7FF04C0A095F7
:1001B000B09511966894F7FDDBDFDEDFFD010EF4EC
:1001C000D7DF0895E894F7FF02C0D2DF6894B7FF45
:1001D00006C0A095B095119600F8039400FA089512
:00000001FF
